{
  "contractName": "Sanyangsam",
  "abi": [
    {
      "anonymous": false,
      "inputs": [
        {
          "indexed": false,
          "internalType": "string",
          "name": "hashString",
          "type": "string"
        }
      ],
      "name": "AddHashValue",
      "type": "event"
    },
    {
      "anonymous": false,
      "inputs": [
        {
          "indexed": false,
          "internalType": "string",
          "name": "plantation_id",
          "type": "string"
        }
      ],
      "name": "AddOwners",
      "type": "event"
    },
    {
      "constant": false,
      "inputs": [
        {
          "internalType": "string",
          "name": "_hash",
          "type": "string"
        },
        {
          "internalType": "string",
          "name": "_plantation_id",
          "type": "string"
        }
      ],
      "name": "addHashValue",
      "outputs": [],
      "payable": false,
      "stateMutability": "nonpayable",
      "type": "function"
    },
    {
      "constant": false,
      "inputs": [
        {
          "internalType": "string",
          "name": "_plantation_id",
          "type": "string"
        }
      ],
      "name": "addOwners",
      "outputs": [],
      "payable": false,
      "stateMutability": "nonpayable",
      "type": "function"
    },
    {
      "constant": true,
      "inputs": [
        {
          "internalType": "string",
          "name": "_plantation_id",
          "type": "string"
        }
      ],
      "name": "getOwners",
      "outputs": [
        {
          "internalType": "address",
          "name": "",
          "type": "address"
        }
      ],
      "payable": false,
      "stateMutability": "view",
      "type": "function"
    }
  ],
  "bytecode": "0x608060405234801561001057600080fd5b50610798806100206000396000f3fe608060405234801561001057600080fd5b50600436106100415760003560e01c806327ead3ad146100465780636057d21b14610198578063c86b522914610293575b600080fd5b6101966004803603604081101561005c57600080fd5b810190808035906020019064010000000081111561007957600080fd5b82018360208201111561008b57600080fd5b803590602001918460018302840111640100000000831117156100ad57600080fd5b91908080601f016020809104026020016040519081016040528093929190818152602001838380828437600081840152601f19601f8201169050808301925050505050505091929192908035906020019064010000000081111561011057600080fd5b82018360208201111561012257600080fd5b8035906020019184600183028401116401000000008311171561014457600080fd5b91908080601f016020809104026020016040519081016040528093929190818152602001838380828437600081840152601f19601f82011690508083019250505050505050919291929050505061034e565b005b610251600480360360208110156101ae57600080fd5b81019080803590602001906401000000008111156101cb57600080fd5b8201836020820111156101dd57600080fd5b803590602001918460018302840111640100000000831117156101ff57600080fd5b91908080601f016020809104026020016040519081016040528093929190818152602001838380828437600081840152601f19601f8201169050808301925050505050505091929192905050506104e4565b604051808273ffffffffffffffffffffffffffffffffffffffff1673ffffffffffffffffffffffffffffffffffffffff16815260200191505060405180910390f35b61034c600480360360208110156102a957600080fd5b81019080803590602001906401000000008111156102c657600080fd5b8201836020820111156102d857600080fd5b803590602001918460018302840111640100000000831117156102fa57600080fd5b91908080601f016020809104026020016040519081016040528093929190818152602001838380828437600081840152601f19601f820116905080830192505050505050509192919290505050610577565b005b3373ffffffffffffffffffffffffffffffffffffffff166001826040518082805190602001908083835b6020831061039b5780518252602082019150602081019050602083039250610378565b6001836020036101000a038019825116818451168082178552505050505050905001915050908152602001604051809103902060009054906101000a900473ffffffffffffffffffffffffffffffffffffffff1673ffffffffffffffffffffffffffffffffffffffff161461040f57600080fd5b81600090805190602001906104259291906106be565b507f5a7f0bf09572529d66265fceeaa79c2508cc0f9a0f904f6f95e87f5885440837600060405180806020018281038252838181546001816001161561010002031660029004815260200191508054600181600116156101000203166002900480156104d25780601f106104a7576101008083540402835291602001916104d2565b820191906000526020600020905b8154815290600101906020018083116104b557829003601f168201915b50509250505060405180910390a15050565b60006001826040518082805190602001908083835b6020831061051c57805182526020820191506020810190506020830392506104f9565b6001836020036101000a038019825116818451168082178552505050505050905001915050908152602001604051809103902060009054906101000a900473ffffffffffffffffffffffffffffffffffffffff169050919050565b336001826040518082805190602001908083835b602083106105ae578051825260208201915060208101905060208303925061058b565b6001836020036101000a038019825116818451168082178552505050505050905001915050908152602001604051809103902060006101000a81548173ffffffffffffffffffffffffffffffffffffffff021916908373ffffffffffffffffffffffffffffffffffffffff1602179055507fb61afdc6c6671cc8ff273542eea586485c5d8e111d0c6737523cf06f0af2eeef816040518080602001828103825283818151815260200191508051906020019080838360005b83811015610681578082015181840152602081019050610666565b50505050905090810190601f1680156106ae5780820380516001836020036101000a031916815260200191505b509250505060405180910390a150565b828054600181600116156101000203166002900490600052602060002090601f016020900481019282601f106106ff57805160ff191683800117855561072d565b8280016001018555821561072d579182015b8281111561072c578251825591602001919060010190610711565b5b50905061073a919061073e565b5090565b61076091905b8082111561075c576000816000905550600101610744565b5090565b9056fea265627a7a723158200d19779c40ed6fd7dd4c745d5fa6032230cd5924da53347b8dc74837be71c50a64736f6c63430005100032",
  "source": "// SPDX-License-Identifier: MIT\r\npragma solidity >=0.4.21 <0.7.0;\r\n\r\ncontract Sanyangsam {\r\n\r\n    string hashValue;\r\n    mapping(string => address) owners;\r\n\r\n    event AddHashValue(string hashString);\r\n    event AddOwners(string plantation_id);\r\n\r\n    function addHashValue(string memory _hash, string memory _plantation_id) public {\r\n        require((owners[_plantation_id] == msg.sender));\r\n        hashValue = _hash;\r\n\r\n        emit AddHashValue(hashValue);\r\n    }\r\n\r\n    function addOwners(string memory _plantation_id) public {\r\n        owners[_plantation_id] = msg.sender;\r\n        emit AddOwners(_plantation_id);\r\n    }\r\n\r\n    function getOwners(string memory _plantation_id) public view returns (address) {\r\n        return owners[_plantation_id];\r\n    }\r\n}",
  "sourcePath": "C:/Users/PayD/Desktop/truffle-test/contracts/Sanyangsam.sol",
  "compiler": {
    "name": "solc",
    "version": "0.5.16+commit.9c3226ce.Emscripten.clang"
  },
  "schemaVersion": "3.2.3",
  "updatedAt": "2020-11-12T18:12:24.384Z",
  "networkType": "ethereum",
  "devdoc": {
    "methods": {}
  },
  "userdoc": {
    "methods": {}
  }
}