{
  "contractName": "Vote",
  "abi": [
    {
      "inputs": [],
      "payable": false,
      "stateMutability": "nonpayable",
      "type": "constructor"
    },
    {
      "anonymous": false,
      "inputs": [
        {
          "indexed": false,
          "internalType": "string",
          "name": "_name",
          "type": "string"
        }
      ],
      "name": "AddCandidator",
      "type": "event"
    },
    {
      "anonymous": false,
      "inputs": [
        {
          "indexed": false,
          "internalType": "bool",
          "name": "isLive",
          "type": "bool"
        }
      ],
      "name": "FinishVote",
      "type": "event"
    },
    {
      "anonymous": false,
      "inputs": [
        {
          "indexed": false,
          "internalType": "string",
          "name": "candidator",
          "type": "string"
        },
        {
          "indexed": false,
          "internalType": "uint256",
          "name": "upVote",
          "type": "uint256"
        }
      ],
      "name": "UpVote",
      "type": "event"
    },
    {
      "anonymous": false,
      "inputs": [
        {
          "indexed": false,
          "internalType": "address",
          "name": "owner",
          "type": "address"
        }
      ],
      "name": "Voting",
      "type": "event"
    },
    {
      "constant": true,
      "inputs": [
        {
          "internalType": "uint256",
          "name": "",
          "type": "uint256"
        }
      ],
      "name": "candidators",
      "outputs": [
        {
          "internalType": "string",
          "name": "name",
          "type": "string"
        },
        {
          "internalType": "uint256",
          "name": "upVote",
          "type": "uint256"
        }
      ],
      "payable": false,
      "stateMutability": "view",
      "type": "function"
    },
    {
      "constant": false,
      "inputs": [
        {
          "internalType": "string",
          "name": "_name",
          "type": "string"
        }
      ],
      "name": "addCandidator",
      "outputs": [],
      "payable": false,
      "stateMutability": "nonpayable",
      "type": "function"
    },
    {
      "constant": false,
      "inputs": [
        {
          "internalType": "uint256",
          "name": "_indexOfCandidator",
          "type": "uint256"
        }
      ],
      "name": "upVote",
      "outputs": [],
      "payable": false,
      "stateMutability": "nonpayable",
      "type": "function"
    },
    {
      "constant": false,
      "inputs": [],
      "name": "finishVote",
      "outputs": [],
      "payable": false,
      "stateMutability": "nonpayable",
      "type": "function"
    }
  ],
  "bytecode": "0x608060405234801561001057600080fd5b50336001806101000a81548173ffffffffffffffffffffffffffffffffffffffff021916908373ffffffffffffffffffffffffffffffffffffffff16021790555060018060006101000a81548160ff0219169083151502179055507f6d41258e44d7ee79f697248fbce67e06508f6c2a56396009d98f28c105d43e956001809054906101000a900473ffffffffffffffffffffffffffffffffffffffff16604051808273ffffffffffffffffffffffffffffffffffffffff1673ffffffffffffffffffffffffffffffffffffffff16815260200191505060405180910390a1610aa4806100fe6000396000f3fe608060405234801561001057600080fd5b506004361061004c5760003560e01c80632aebcbb614610051578063686be2a21461005b578063cea5051014610109578063ec859db5146101c4575b600080fd5b6100596101f2565b005b6100876004803603602081101561007157600080fd5b81019080803590602001909291905050506103a4565b6040518080602001838152602001828103825284818151815260200191508051906020019080838360005b838110156100cd5780820151818401526020810190506100b2565b50505050905090810190601f1680156100fa5780820380516001836020036101000a031916815260200191505b50935050505060405180910390f35b6101c26004803603602081101561011f57600080fd5b810190808035906020019064010000000081111561013c57600080fd5b82018360208201111561014e57600080fd5b8035906020019184600183028401116401000000008311171561017057600080fd5b91908080601f016020809104026020016040519081016040528093929190818152602001838380828437600081840152601f19601f82011690508083019250505050505050919291929050505061046d565b005b6101f0600480360360208110156101da57600080fd5b810190808035906020019092919050505061067d565b005b6001809054906101000a900473ffffffffffffffffffffffffffffffffffffffff1673ffffffffffffffffffffffffffffffffffffffff163373ffffffffffffffffffffffffffffffffffffffff16146102b4576040517f08c379a00000000000000000000000000000000000000000000000000000000081526004018080602001828103825260168152602001807f4f6e6c79206f776e65722063616e20646f20746869730000000000000000000081525060200191505060405180910390fd5b60011515600160009054906101000a900460ff1615151461033d576040517f08c379a000000000000000000000000000000000000000000000000000000000815260040180806020018281038252600e8152602001807f566f74696e67206973206f76657200000000000000000000000000000000000081525060200191505060405180910390fd5b6000600160006101000a81548160ff0219169083151502179055507f52a1f86df561bcdc915e07aafb957e1253d4464fc7fae3d6700815e71f063ffc600160009054906101000a900460ff16604051808215151515815260200191505060405180910390a1565b600081815481106103b157fe5b9060005260206000209060020201600091509050806000018054600181600116156101000203166002900480601f01602080910402602001604051908101604052809291908181526020018280546001816001161561010002031660029004801561045d5780601f106104325761010080835404028352916020019161045d565b820191906000526020600020905b81548152906001019060200180831161044057829003601f168201915b5050505050908060010154905082565b60011515600160009054906101000a900460ff161515146104f6576040517f08c379a000000000000000000000000000000000000000000000000000000000815260040180806020018281038252600e8152602001807f566f74696e67206973206f76657200000000000000000000000000000000000081525060200191505060405180910390fd5b600560008054905010610571576040517f08c379a00000000000000000000000000000000000000000000000000000000081526004018080602001828103825260148152602001807f546f6f206d7563682063616e64696461746f727300000000000000000000000081525060200191505060405180910390fd5b6000604051806040016040528083815260200160008152509080600181540180825580915050906001820390600052602060002090600202016000909192909190915060008201518160000190805190602001906105d09291906109ca565b50602082015181600101555050507ffe205e680ae4a254a0102de327d3c2b63168ae75f42f046f1fd775c3c866871b816040518080602001828103825283818151815260200191508051906020019080838360005b83811015610640578082015181840152602081019050610625565b50505050905090810190601f16801561066d5780820380516001836020036101000a031916815260200191505b509250505060405180910390a150565b60011515600160009054906101000a900460ff16151514610706576040517f08c379a000000000000000000000000000000000000000000000000000000000815260040180806020018281038252600e8152602001807f566f74696e67206973206f76657200000000000000000000000000000000000081525060200191505060405180910390fd5b6000805490508110610780576040517f08c379a00000000000000000000000000000000000000000000000000000000081526004018080602001828103825260188152602001807f496e76616c69642043616e64696461746f7220496e646578000000000000000081525060200191505060405180910390fd5b60001515600260003373ffffffffffffffffffffffffffffffffffffffff1673ffffffffffffffffffffffffffffffffffffffff16815260200190815260200160002060009054906101000a900460ff16151514610846576040517f08c379a00000000000000000000000000000000000000000000000000000000081526004018080602001828103825260118152602001807f596f7520616c726561647920766f74656400000000000000000000000000000081525060200191505060405180910390fd5b6000818154811061085357fe5b9060005260206000209060020201600101600081548092919060010191905055506001600260003373ffffffffffffffffffffffffffffffffffffffff1673ffffffffffffffffffffffffffffffffffffffff16815260200190815260200160002060006101000a81548160ff0219169083151502179055507e8e3b27e09daa83ef4d239b211c458358c74c8ab4a844aa4ce24f2a4e211eeb600082815481106108f957fe5b90600052602060002090600202016000016000838154811061091757fe5b90600052602060002090600202016001015460405180806020018381526020018281038252848181546001816001161561010002031660029004815260200191508054600181600116156101000203166002900480156109b85780601f1061098d576101008083540402835291602001916109b8565b820191906000526020600020905b81548152906001019060200180831161099b57829003601f168201915b5050935050505060405180910390a150565b828054600181600116156101000203166002900490600052602060002090601f016020900481019282601f10610a0b57805160ff1916838001178555610a39565b82800160010185558215610a39579182015b82811115610a38578251825591602001919060010190610a1d565b5b509050610a469190610a4a565b5090565b610a6c91905b80821115610a68576000816000905550600101610a50565b5090565b9056fea265627a7a7231582011271fc7ac8699d347aa90d123c16233a271fe59c710bf72d6becc79227d474e64736f6c63430005100032",
  "source": "// SPDX-License-Identifier: MIT\r\npragma solidity >=0.4.21 <0.7.0;\r\n\r\ncontract Vote {\r\n\r\n    struct candidator {\r\n        string name;\r\n        uint upVote;\r\n    }\r\n\r\n    candidator[] public candidators;\r\n    bool isLive;\r\n    address owner;\r\n\r\n    mapping(address => bool) Voted;\r\n\r\n    event AddCandidator(string _name);\r\n    event UpVote(string candidator, uint upVote);\r\n    event FinishVote(bool isLive);\r\n    event Voting(address owner);\r\n\r\n    modifier onlyOwner {\r\n        require(\r\n            msg.sender == owner,\r\n            \"Only owner can do this\"\r\n        );\r\n        _;\r\n    }\r\n\r\n    constructor() public {\r\n        owner = msg.sender;\r\n        isLive = true;\r\n\r\n        emit Voting(owner);\r\n    }\r\n\r\n    function addCandidator(string memory _name) public {\r\n        require(\r\n            isLive == true,\r\n            \"Voting is over\"\r\n        );\r\n        require(\r\n            candidators.length < 5,\r\n            \"Too much candidators\"\r\n        );\r\n        candidators.push(candidator(_name, 0));\r\n\r\n        emit AddCandidator(_name);\r\n    }\r\n\r\n    function upVote(uint _indexOfCandidator) public {\r\n        require(\r\n            isLive == true,\r\n            \"Voting is over\"\r\n        );\r\n        require(\r\n            _indexOfCandidator < candidators.length,\r\n            \"Invalid Candidator Index\"\r\n        );\r\n        require(\r\n            Voted[msg.sender] == false,\r\n            \"You already voted\"\r\n        );\r\n        candidators[_indexOfCandidator].upVote++;\r\n\r\n        Voted[msg.sender] = true;\r\n\r\n        emit UpVote(candidators[_indexOfCandidator].name, candidators[_indexOfCandidator].upVote);\r\n    }\r\n\r\n    function finishVote() public onlyOwner {\r\n        require(\r\n            isLive == true,\r\n            \"Voting is over\"\r\n        );\r\n        isLive = false;\r\n\r\n        emit FinishVote(isLive);\r\n    }\r\n}",
  "sourcePath": "C:/Users/PayD/Desktop/truffle-test/contracts/Vote.sol",
  "compiler": {
    "name": "solc",
    "version": "0.5.16+commit.9c3226ce.Emscripten.clang"
  },
  "schemaVersion": "3.2.3",
  "updatedAt": "2020-11-12T17:40:24.580Z",
  "networkType": "ethereum",
  "devdoc": {
    "methods": {}
  },
  "userdoc": {
    "methods": {}
  }
}